
Robot.elf:     file format elf32-avr

Sections:
Idx Name          Size      VMA       LMA       File off  Algn
  0 .text         000005ac  00000000  00000000  00000054  2**1
                  CONTENTS, ALLOC, LOAD, READONLY, CODE
  1 .stab         000005c4  00000000  00000000  00000600  2**2
                  CONTENTS, READONLY, DEBUGGING
  2 .stabstr      000003fc  00000000  00000000  00000bc4  2**0
                  CONTENTS, READONLY, DEBUGGING

Disassembly of section .text:

00000000 <__vectors>:
   0:	0c 94 34 00 	jmp	0x68	; 0x68 <__ctors_end>
   4:	0c 94 3e 00 	jmp	0x7c	; 0x7c <__bad_interrupt>
   8:	0c 94 3e 00 	jmp	0x7c	; 0x7c <__bad_interrupt>
   c:	0c 94 3e 00 	jmp	0x7c	; 0x7c <__bad_interrupt>
  10:	0c 94 3e 00 	jmp	0x7c	; 0x7c <__bad_interrupt>
  14:	0c 94 3e 00 	jmp	0x7c	; 0x7c <__bad_interrupt>
  18:	0c 94 3e 00 	jmp	0x7c	; 0x7c <__bad_interrupt>
  1c:	0c 94 3e 00 	jmp	0x7c	; 0x7c <__bad_interrupt>
  20:	0c 94 3e 00 	jmp	0x7c	; 0x7c <__bad_interrupt>
  24:	0c 94 3e 00 	jmp	0x7c	; 0x7c <__bad_interrupt>
  28:	0c 94 3e 00 	jmp	0x7c	; 0x7c <__bad_interrupt>
  2c:	0c 94 3e 00 	jmp	0x7c	; 0x7c <__bad_interrupt>
  30:	0c 94 3e 00 	jmp	0x7c	; 0x7c <__bad_interrupt>
  34:	0c 94 3e 00 	jmp	0x7c	; 0x7c <__bad_interrupt>
  38:	0c 94 3e 00 	jmp	0x7c	; 0x7c <__bad_interrupt>
  3c:	0c 94 3e 00 	jmp	0x7c	; 0x7c <__bad_interrupt>
  40:	0c 94 3e 00 	jmp	0x7c	; 0x7c <__bad_interrupt>
  44:	0c 94 3e 00 	jmp	0x7c	; 0x7c <__bad_interrupt>
  48:	0c 94 3e 00 	jmp	0x7c	; 0x7c <__bad_interrupt>
  4c:	0c 94 3e 00 	jmp	0x7c	; 0x7c <__bad_interrupt>
  50:	0c 94 3e 00 	jmp	0x7c	; 0x7c <__bad_interrupt>
  54:	0c 94 3e 00 	jmp	0x7c	; 0x7c <__bad_interrupt>
  58:	0c 94 3e 00 	jmp	0x7c	; 0x7c <__bad_interrupt>
  5c:	0c 94 3e 00 	jmp	0x7c	; 0x7c <__bad_interrupt>
  60:	0c 94 3e 00 	jmp	0x7c	; 0x7c <__bad_interrupt>
  64:	0c 94 3e 00 	jmp	0x7c	; 0x7c <__bad_interrupt>

00000068 <__ctors_end>:
  68:	11 24       	eor	r1, r1
  6a:	1f be       	out	0x3f, r1	; 63
  6c:	cf ef       	ldi	r28, 0xFF	; 255
  6e:	d8 e0       	ldi	r29, 0x08	; 8
  70:	de bf       	out	0x3e, r29	; 62
  72:	cd bf       	out	0x3d, r28	; 61
  74:	0e 94 a9 02 	call	0x552	; 0x552 <main>
  78:	0c 94 d4 02 	jmp	0x5a8	; 0x5a8 <_exit>

0000007c <__bad_interrupt>:
  7c:	0c 94 00 00 	jmp	0	; 0x0 <__vectors>

00000080 <DIO_SetPinValue>:
#include "../BIT_MATH.h"
#include "../STD_TYPES.h"
#include"DIO_int.h"
#include"DIO_reg.h"
void DIO_SetPinValue(u8 u8PortIdCopy , u8 u8PinIdCopy, u8 u8PinValCopy)
{
  80:	df 93       	push	r29
  82:	cf 93       	push	r28
  84:	cd b7       	in	r28, 0x3d	; 61
  86:	de b7       	in	r29, 0x3e	; 62
  88:	27 97       	sbiw	r28, 0x07	; 7
  8a:	0f b6       	in	r0, 0x3f	; 63
  8c:	f8 94       	cli
  8e:	de bf       	out	0x3e, r29	; 62
  90:	0f be       	out	0x3f, r0	; 63
  92:	cd bf       	out	0x3d, r28	; 61
  94:	89 83       	std	Y+1, r24	; 0x01
  96:	6a 83       	std	Y+2, r22	; 0x02
  98:	4b 83       	std	Y+3, r20	; 0x03

  if(u8PortIdCopy<=XPORTD && u8PinIdCopy<=PIN7)
  9a:	89 81       	ldd	r24, Y+1	; 0x01
  9c:	84 30       	cpi	r24, 0x04	; 4
  9e:	08 f0       	brcs	.+2      	; 0xa2 <DIO_SetPinValue+0x22>
  a0:	ac c0       	rjmp	.+344    	; 0x1fa <DIO_SetPinValue+0x17a>
  a2:	8a 81       	ldd	r24, Y+2	; 0x02
  a4:	88 30       	cpi	r24, 0x08	; 8
  a6:	08 f0       	brcs	.+2      	; 0xaa <DIO_SetPinValue+0x2a>
  a8:	a8 c0       	rjmp	.+336    	; 0x1fa <DIO_SetPinValue+0x17a>
  {
 if(u8PinValCopy==HIGH)
  aa:	8b 81       	ldd	r24, Y+3	; 0x03
  ac:	81 30       	cpi	r24, 0x01	; 1
  ae:	09 f0       	breq	.+2      	; 0xb2 <DIO_SetPinValue+0x32>
  b0:	51 c0       	rjmp	.+162    	; 0x154 <DIO_SetPinValue+0xd4>
  {
	switch(u8PortIdCopy)
  b2:	89 81       	ldd	r24, Y+1	; 0x01
  b4:	28 2f       	mov	r18, r24
  b6:	30 e0       	ldi	r19, 0x00	; 0
  b8:	3f 83       	std	Y+7, r19	; 0x07
  ba:	2e 83       	std	Y+6, r18	; 0x06
  bc:	8e 81       	ldd	r24, Y+6	; 0x06
  be:	9f 81       	ldd	r25, Y+7	; 0x07
  c0:	82 30       	cpi	r24, 0x02	; 2
  c2:	91 05       	cpc	r25, r1
  c4:	f9 f0       	breq	.+62     	; 0x104 <DIO_SetPinValue+0x84>
  c6:	2e 81       	ldd	r18, Y+6	; 0x06
  c8:	3f 81       	ldd	r19, Y+7	; 0x07
  ca:	23 30       	cpi	r18, 0x03	; 3
  cc:	31 05       	cpc	r19, r1
  ce:	71 f1       	breq	.+92     	; 0x12c <DIO_SetPinValue+0xac>
  d0:	8e 81       	ldd	r24, Y+6	; 0x06
  d2:	9f 81       	ldd	r25, Y+7	; 0x07
  d4:	81 30       	cpi	r24, 0x01	; 1
  d6:	91 05       	cpc	r25, r1
  d8:	09 f0       	breq	.+2      	; 0xdc <DIO_SetPinValue+0x5c>
  da:	8f c0       	rjmp	.+286    	; 0x1fa <DIO_SetPinValue+0x17a>
	{

	  case XPORTB :
	       SET_BIT(PORTB_Register,u8PinIdCopy);
  dc:	a5 e2       	ldi	r26, 0x25	; 37
  de:	b0 e0       	ldi	r27, 0x00	; 0
  e0:	e5 e2       	ldi	r30, 0x25	; 37
  e2:	f0 e0       	ldi	r31, 0x00	; 0
  e4:	80 81       	ld	r24, Z
  e6:	48 2f       	mov	r20, r24
  e8:	8a 81       	ldd	r24, Y+2	; 0x02
  ea:	28 2f       	mov	r18, r24
  ec:	30 e0       	ldi	r19, 0x00	; 0
  ee:	81 e0       	ldi	r24, 0x01	; 1
  f0:	90 e0       	ldi	r25, 0x00	; 0
  f2:	02 2e       	mov	r0, r18
  f4:	02 c0       	rjmp	.+4      	; 0xfa <DIO_SetPinValue+0x7a>
  f6:	88 0f       	add	r24, r24
  f8:	99 1f       	adc	r25, r25
  fa:	0a 94       	dec	r0
  fc:	e2 f7       	brpl	.-8      	; 0xf6 <DIO_SetPinValue+0x76>
  fe:	84 2b       	or	r24, r20
 100:	8c 93       	st	X, r24
 102:	7b c0       	rjmp	.+246    	; 0x1fa <DIO_SetPinValue+0x17a>
	       break;
	  case XPORTC :
	       SET_BIT(PORTC_Register,u8PinIdCopy);
 104:	a8 e2       	ldi	r26, 0x28	; 40
 106:	b0 e0       	ldi	r27, 0x00	; 0
 108:	e8 e2       	ldi	r30, 0x28	; 40
 10a:	f0 e0       	ldi	r31, 0x00	; 0
 10c:	80 81       	ld	r24, Z
 10e:	48 2f       	mov	r20, r24
 110:	8a 81       	ldd	r24, Y+2	; 0x02
 112:	28 2f       	mov	r18, r24
 114:	30 e0       	ldi	r19, 0x00	; 0
 116:	81 e0       	ldi	r24, 0x01	; 1
 118:	90 e0       	ldi	r25, 0x00	; 0
 11a:	02 2e       	mov	r0, r18
 11c:	02 c0       	rjmp	.+4      	; 0x122 <DIO_SetPinValue+0xa2>
 11e:	88 0f       	add	r24, r24
 120:	99 1f       	adc	r25, r25
 122:	0a 94       	dec	r0
 124:	e2 f7       	brpl	.-8      	; 0x11e <DIO_SetPinValue+0x9e>
 126:	84 2b       	or	r24, r20
 128:	8c 93       	st	X, r24
 12a:	67 c0       	rjmp	.+206    	; 0x1fa <DIO_SetPinValue+0x17a>
	       break;
	  case XPORTD :
	       SET_BIT(PORTD_Register,u8PinIdCopy);
 12c:	ab e2       	ldi	r26, 0x2B	; 43
 12e:	b0 e0       	ldi	r27, 0x00	; 0
 130:	eb e2       	ldi	r30, 0x2B	; 43
 132:	f0 e0       	ldi	r31, 0x00	; 0
 134:	80 81       	ld	r24, Z
 136:	48 2f       	mov	r20, r24
 138:	8a 81       	ldd	r24, Y+2	; 0x02
 13a:	28 2f       	mov	r18, r24
 13c:	30 e0       	ldi	r19, 0x00	; 0
 13e:	81 e0       	ldi	r24, 0x01	; 1
 140:	90 e0       	ldi	r25, 0x00	; 0
 142:	02 2e       	mov	r0, r18
 144:	02 c0       	rjmp	.+4      	; 0x14a <DIO_SetPinValue+0xca>
 146:	88 0f       	add	r24, r24
 148:	99 1f       	adc	r25, r25
 14a:	0a 94       	dec	r0
 14c:	e2 f7       	brpl	.-8      	; 0x146 <DIO_SetPinValue+0xc6>
 14e:	84 2b       	or	r24, r20
 150:	8c 93       	st	X, r24
 152:	53 c0       	rjmp	.+166    	; 0x1fa <DIO_SetPinValue+0x17a>
	       break;
	}
   }
 else
 {
		switch(u8PortIdCopy)
 154:	89 81       	ldd	r24, Y+1	; 0x01
 156:	28 2f       	mov	r18, r24
 158:	30 e0       	ldi	r19, 0x00	; 0
 15a:	3d 83       	std	Y+5, r19	; 0x05
 15c:	2c 83       	std	Y+4, r18	; 0x04
 15e:	8c 81       	ldd	r24, Y+4	; 0x04
 160:	9d 81       	ldd	r25, Y+5	; 0x05
 162:	82 30       	cpi	r24, 0x02	; 2
 164:	91 05       	cpc	r25, r1
 166:	01 f1       	breq	.+64     	; 0x1a8 <DIO_SetPinValue+0x128>
 168:	2c 81       	ldd	r18, Y+4	; 0x04
 16a:	3d 81       	ldd	r19, Y+5	; 0x05
 16c:	23 30       	cpi	r18, 0x03	; 3
 16e:	31 05       	cpc	r19, r1
 170:	81 f1       	breq	.+96     	; 0x1d2 <DIO_SetPinValue+0x152>
 172:	8c 81       	ldd	r24, Y+4	; 0x04
 174:	9d 81       	ldd	r25, Y+5	; 0x05
 176:	81 30       	cpi	r24, 0x01	; 1
 178:	91 05       	cpc	r25, r1
 17a:	09 f0       	breq	.+2      	; 0x17e <DIO_SetPinValue+0xfe>
 17c:	3e c0       	rjmp	.+124    	; 0x1fa <DIO_SetPinValue+0x17a>
		{


		  case XPORTB :
			  CLR_BIT(PORTB_Register,u8PinIdCopy);
 17e:	a5 e2       	ldi	r26, 0x25	; 37
 180:	b0 e0       	ldi	r27, 0x00	; 0
 182:	e5 e2       	ldi	r30, 0x25	; 37
 184:	f0 e0       	ldi	r31, 0x00	; 0
 186:	80 81       	ld	r24, Z
 188:	48 2f       	mov	r20, r24
 18a:	8a 81       	ldd	r24, Y+2	; 0x02
 18c:	28 2f       	mov	r18, r24
 18e:	30 e0       	ldi	r19, 0x00	; 0
 190:	81 e0       	ldi	r24, 0x01	; 1
 192:	90 e0       	ldi	r25, 0x00	; 0
 194:	02 2e       	mov	r0, r18
 196:	02 c0       	rjmp	.+4      	; 0x19c <DIO_SetPinValue+0x11c>
 198:	88 0f       	add	r24, r24
 19a:	99 1f       	adc	r25, r25
 19c:	0a 94       	dec	r0
 19e:	e2 f7       	brpl	.-8      	; 0x198 <DIO_SetPinValue+0x118>
 1a0:	80 95       	com	r24
 1a2:	84 23       	and	r24, r20
 1a4:	8c 93       	st	X, r24
 1a6:	29 c0       	rjmp	.+82     	; 0x1fa <DIO_SetPinValue+0x17a>
		       break;
		  case XPORTC :
			  CLR_BIT(PORTC_Register,u8PinIdCopy);
 1a8:	a8 e2       	ldi	r26, 0x28	; 40
 1aa:	b0 e0       	ldi	r27, 0x00	; 0
 1ac:	e8 e2       	ldi	r30, 0x28	; 40
 1ae:	f0 e0       	ldi	r31, 0x00	; 0
 1b0:	80 81       	ld	r24, Z
 1b2:	48 2f       	mov	r20, r24
 1b4:	8a 81       	ldd	r24, Y+2	; 0x02
 1b6:	28 2f       	mov	r18, r24
 1b8:	30 e0       	ldi	r19, 0x00	; 0
 1ba:	81 e0       	ldi	r24, 0x01	; 1
 1bc:	90 e0       	ldi	r25, 0x00	; 0
 1be:	02 2e       	mov	r0, r18
 1c0:	02 c0       	rjmp	.+4      	; 0x1c6 <DIO_SetPinValue+0x146>
 1c2:	88 0f       	add	r24, r24
 1c4:	99 1f       	adc	r25, r25
 1c6:	0a 94       	dec	r0
 1c8:	e2 f7       	brpl	.-8      	; 0x1c2 <DIO_SetPinValue+0x142>
 1ca:	80 95       	com	r24
 1cc:	84 23       	and	r24, r20
 1ce:	8c 93       	st	X, r24
 1d0:	14 c0       	rjmp	.+40     	; 0x1fa <DIO_SetPinValue+0x17a>
		       break;
		  case XPORTD :
			  CLR_BIT(PORTD_Register,u8PinIdCopy);
 1d2:	ab e2       	ldi	r26, 0x2B	; 43
 1d4:	b0 e0       	ldi	r27, 0x00	; 0
 1d6:	eb e2       	ldi	r30, 0x2B	; 43
 1d8:	f0 e0       	ldi	r31, 0x00	; 0
 1da:	80 81       	ld	r24, Z
 1dc:	48 2f       	mov	r20, r24
 1de:	8a 81       	ldd	r24, Y+2	; 0x02
 1e0:	28 2f       	mov	r18, r24
 1e2:	30 e0       	ldi	r19, 0x00	; 0
 1e4:	81 e0       	ldi	r24, 0x01	; 1
 1e6:	90 e0       	ldi	r25, 0x00	; 0
 1e8:	02 2e       	mov	r0, r18
 1ea:	02 c0       	rjmp	.+4      	; 0x1f0 <DIO_SetPinValue+0x170>
 1ec:	88 0f       	add	r24, r24
 1ee:	99 1f       	adc	r25, r25
 1f0:	0a 94       	dec	r0
 1f2:	e2 f7       	brpl	.-8      	; 0x1ec <DIO_SetPinValue+0x16c>
 1f4:	80 95       	com	r24
 1f6:	84 23       	and	r24, r20
 1f8:	8c 93       	st	X, r24
		       break;
		}
 }
  }
}
 1fa:	27 96       	adiw	r28, 0x07	; 7
 1fc:	0f b6       	in	r0, 0x3f	; 63
 1fe:	f8 94       	cli
 200:	de bf       	out	0x3e, r29	; 62
 202:	0f be       	out	0x3f, r0	; 63
 204:	cd bf       	out	0x3d, r28	; 61
 206:	cf 91       	pop	r28
 208:	df 91       	pop	r29
 20a:	08 95       	ret

0000020c <DIO_GetPinValue>:
u8 DIO_GetPinValue(u8 u8PortIdCopy, u8 u8PinIdCopy)
{
 20c:	df 93       	push	r29
 20e:	cf 93       	push	r28
 210:	00 d0       	rcall	.+0      	; 0x212 <DIO_GetPinValue+0x6>
 212:	00 d0       	rcall	.+0      	; 0x214 <DIO_GetPinValue+0x8>
 214:	0f 92       	push	r0
 216:	cd b7       	in	r28, 0x3d	; 61
 218:	de b7       	in	r29, 0x3e	; 62
 21a:	8a 83       	std	Y+2, r24	; 0x02
 21c:	6b 83       	std	Y+3, r22	; 0x03
	u8 result=255;
 21e:	8f ef       	ldi	r24, 0xFF	; 255
 220:	89 83       	std	Y+1, r24	; 0x01
	switch(u8PortIdCopy)
 222:	8a 81       	ldd	r24, Y+2	; 0x02
 224:	28 2f       	mov	r18, r24
 226:	30 e0       	ldi	r19, 0x00	; 0
 228:	3d 83       	std	Y+5, r19	; 0x05
 22a:	2c 83       	std	Y+4, r18	; 0x04
 22c:	4c 81       	ldd	r20, Y+4	; 0x04
 22e:	5d 81       	ldd	r21, Y+5	; 0x05
 230:	42 30       	cpi	r20, 0x02	; 2
 232:	51 05       	cpc	r21, r1
 234:	51 f1       	breq	.+84     	; 0x28a <DIO_GetPinValue+0x7e>
 236:	8c 81       	ldd	r24, Y+4	; 0x04
 238:	9d 81       	ldd	r25, Y+5	; 0x05
 23a:	83 30       	cpi	r24, 0x03	; 3
 23c:	91 05       	cpc	r25, r1
 23e:	09 f4       	brne	.+2      	; 0x242 <DIO_GetPinValue+0x36>
 240:	42 c0       	rjmp	.+132    	; 0x2c6 <DIO_GetPinValue+0xba>
 242:	2c 81       	ldd	r18, Y+4	; 0x04
 244:	3d 81       	ldd	r19, Y+5	; 0x05
 246:	21 30       	cpi	r18, 0x01	; 1
 248:	31 05       	cpc	r19, r1
 24a:	09 f0       	breq	.+2      	; 0x24e <DIO_GetPinValue+0x42>
 24c:	59 c0       	rjmp	.+178    	; 0x300 <DIO_GetPinValue+0xf4>
	{

	  case XPORTB :
		  result=  GET_BIT(PINB_Register,u8PinIdCopy);
 24e:	e3 e2       	ldi	r30, 0x23	; 35
 250:	f0 e0       	ldi	r31, 0x00	; 0
 252:	80 81       	ld	r24, Z
 254:	48 2f       	mov	r20, r24
 256:	50 e0       	ldi	r21, 0x00	; 0
 258:	8b 81       	ldd	r24, Y+3	; 0x03
 25a:	28 2f       	mov	r18, r24
 25c:	30 e0       	ldi	r19, 0x00	; 0
 25e:	81 e0       	ldi	r24, 0x01	; 1
 260:	90 e0       	ldi	r25, 0x00	; 0
 262:	02 c0       	rjmp	.+4      	; 0x268 <DIO_GetPinValue+0x5c>
 264:	88 0f       	add	r24, r24
 266:	99 1f       	adc	r25, r25
 268:	2a 95       	dec	r18
 26a:	e2 f7       	brpl	.-8      	; 0x264 <DIO_GetPinValue+0x58>
 26c:	9a 01       	movw	r18, r20
 26e:	28 23       	and	r18, r24
 270:	39 23       	and	r19, r25
 272:	8b 81       	ldd	r24, Y+3	; 0x03
 274:	88 2f       	mov	r24, r24
 276:	90 e0       	ldi	r25, 0x00	; 0
 278:	a9 01       	movw	r20, r18
 27a:	02 c0       	rjmp	.+4      	; 0x280 <DIO_GetPinValue+0x74>
 27c:	55 95       	asr	r21
 27e:	47 95       	ror	r20
 280:	8a 95       	dec	r24
 282:	e2 f7       	brpl	.-8      	; 0x27c <DIO_GetPinValue+0x70>
 284:	ca 01       	movw	r24, r20
 286:	89 83       	std	Y+1, r24	; 0x01
 288:	3b c0       	rjmp	.+118    	; 0x300 <DIO_GetPinValue+0xf4>
	       break;
	  case XPORTC :
		  result=  GET_BIT(PINC_Register,u8PinIdCopy);
 28a:	e6 e2       	ldi	r30, 0x26	; 38
 28c:	f0 e0       	ldi	r31, 0x00	; 0
 28e:	80 81       	ld	r24, Z
 290:	48 2f       	mov	r20, r24
 292:	50 e0       	ldi	r21, 0x00	; 0
 294:	8b 81       	ldd	r24, Y+3	; 0x03
 296:	28 2f       	mov	r18, r24
 298:	30 e0       	ldi	r19, 0x00	; 0
 29a:	81 e0       	ldi	r24, 0x01	; 1
 29c:	90 e0       	ldi	r25, 0x00	; 0
 29e:	02 c0       	rjmp	.+4      	; 0x2a4 <DIO_GetPinValue+0x98>
 2a0:	88 0f       	add	r24, r24
 2a2:	99 1f       	adc	r25, r25
 2a4:	2a 95       	dec	r18
 2a6:	e2 f7       	brpl	.-8      	; 0x2a0 <DIO_GetPinValue+0x94>
 2a8:	9a 01       	movw	r18, r20
 2aa:	28 23       	and	r18, r24
 2ac:	39 23       	and	r19, r25
 2ae:	8b 81       	ldd	r24, Y+3	; 0x03
 2b0:	88 2f       	mov	r24, r24
 2b2:	90 e0       	ldi	r25, 0x00	; 0
 2b4:	a9 01       	movw	r20, r18
 2b6:	02 c0       	rjmp	.+4      	; 0x2bc <DIO_GetPinValue+0xb0>
 2b8:	55 95       	asr	r21
 2ba:	47 95       	ror	r20
 2bc:	8a 95       	dec	r24
 2be:	e2 f7       	brpl	.-8      	; 0x2b8 <DIO_GetPinValue+0xac>
 2c0:	ca 01       	movw	r24, r20
 2c2:	89 83       	std	Y+1, r24	; 0x01
 2c4:	1d c0       	rjmp	.+58     	; 0x300 <DIO_GetPinValue+0xf4>
	       break;
	  case XPORTD :
		  result=  GET_BIT(PIND_Register,u8PinIdCopy);
 2c6:	e9 e2       	ldi	r30, 0x29	; 41
 2c8:	f0 e0       	ldi	r31, 0x00	; 0
 2ca:	80 81       	ld	r24, Z
 2cc:	48 2f       	mov	r20, r24
 2ce:	50 e0       	ldi	r21, 0x00	; 0
 2d0:	8b 81       	ldd	r24, Y+3	; 0x03
 2d2:	28 2f       	mov	r18, r24
 2d4:	30 e0       	ldi	r19, 0x00	; 0
 2d6:	81 e0       	ldi	r24, 0x01	; 1
 2d8:	90 e0       	ldi	r25, 0x00	; 0
 2da:	02 c0       	rjmp	.+4      	; 0x2e0 <DIO_GetPinValue+0xd4>
 2dc:	88 0f       	add	r24, r24
 2de:	99 1f       	adc	r25, r25
 2e0:	2a 95       	dec	r18
 2e2:	e2 f7       	brpl	.-8      	; 0x2dc <DIO_GetPinValue+0xd0>
 2e4:	9a 01       	movw	r18, r20
 2e6:	28 23       	and	r18, r24
 2e8:	39 23       	and	r19, r25
 2ea:	8b 81       	ldd	r24, Y+3	; 0x03
 2ec:	88 2f       	mov	r24, r24
 2ee:	90 e0       	ldi	r25, 0x00	; 0
 2f0:	a9 01       	movw	r20, r18
 2f2:	02 c0       	rjmp	.+4      	; 0x2f8 <DIO_GetPinValue+0xec>
 2f4:	55 95       	asr	r21
 2f6:	47 95       	ror	r20
 2f8:	8a 95       	dec	r24
 2fa:	e2 f7       	brpl	.-8      	; 0x2f4 <DIO_GetPinValue+0xe8>
 2fc:	ca 01       	movw	r24, r20
 2fe:	89 83       	std	Y+1, r24	; 0x01
	       break;
	}
	return result;
 300:	89 81       	ldd	r24, Y+1	; 0x01
}
 302:	0f 90       	pop	r0
 304:	0f 90       	pop	r0
 306:	0f 90       	pop	r0
 308:	0f 90       	pop	r0
 30a:	0f 90       	pop	r0
 30c:	cf 91       	pop	r28
 30e:	df 91       	pop	r29
 310:	08 95       	ret

00000312 <DIO_SetPinDirection>:
void DIO_SetPinDirection (u8 u8PortIdCopy, u8 u8PinIdCopy, u8 u8PinDirCopy)
{
 312:	df 93       	push	r29
 314:	cf 93       	push	r28
 316:	cd b7       	in	r28, 0x3d	; 61
 318:	de b7       	in	r29, 0x3e	; 62
 31a:	27 97       	sbiw	r28, 0x07	; 7
 31c:	0f b6       	in	r0, 0x3f	; 63
 31e:	f8 94       	cli
 320:	de bf       	out	0x3e, r29	; 62
 322:	0f be       	out	0x3f, r0	; 63
 324:	cd bf       	out	0x3d, r28	; 61
 326:	89 83       	std	Y+1, r24	; 0x01
 328:	6a 83       	std	Y+2, r22	; 0x02
 32a:	4b 83       	std	Y+3, r20	; 0x03

	 if(u8PinDirCopy==OUTPUT)
 32c:	8b 81       	ldd	r24, Y+3	; 0x03
 32e:	81 30       	cpi	r24, 0x01	; 1
 330:	09 f0       	breq	.+2      	; 0x334 <DIO_SetPinDirection+0x22>
 332:	51 c0       	rjmp	.+162    	; 0x3d6 <DIO_SetPinDirection+0xc4>
	  {
		switch(u8PortIdCopy)
 334:	89 81       	ldd	r24, Y+1	; 0x01
 336:	28 2f       	mov	r18, r24
 338:	30 e0       	ldi	r19, 0x00	; 0
 33a:	3f 83       	std	Y+7, r19	; 0x07
 33c:	2e 83       	std	Y+6, r18	; 0x06
 33e:	8e 81       	ldd	r24, Y+6	; 0x06
 340:	9f 81       	ldd	r25, Y+7	; 0x07
 342:	82 30       	cpi	r24, 0x02	; 2
 344:	91 05       	cpc	r25, r1
 346:	f9 f0       	breq	.+62     	; 0x386 <DIO_SetPinDirection+0x74>
 348:	2e 81       	ldd	r18, Y+6	; 0x06
 34a:	3f 81       	ldd	r19, Y+7	; 0x07
 34c:	23 30       	cpi	r18, 0x03	; 3
 34e:	31 05       	cpc	r19, r1
 350:	71 f1       	breq	.+92     	; 0x3ae <DIO_SetPinDirection+0x9c>
 352:	8e 81       	ldd	r24, Y+6	; 0x06
 354:	9f 81       	ldd	r25, Y+7	; 0x07
 356:	81 30       	cpi	r24, 0x01	; 1
 358:	91 05       	cpc	r25, r1
 35a:	09 f0       	breq	.+2      	; 0x35e <DIO_SetPinDirection+0x4c>
 35c:	8f c0       	rjmp	.+286    	; 0x47c <DIO_SetPinDirection+0x16a>
		{

		  case XPORTB :
		       SET_BIT(DDRB_Register,u8PinIdCopy);
 35e:	a4 e2       	ldi	r26, 0x24	; 36
 360:	b0 e0       	ldi	r27, 0x00	; 0
 362:	e4 e2       	ldi	r30, 0x24	; 36
 364:	f0 e0       	ldi	r31, 0x00	; 0
 366:	80 81       	ld	r24, Z
 368:	48 2f       	mov	r20, r24
 36a:	8a 81       	ldd	r24, Y+2	; 0x02
 36c:	28 2f       	mov	r18, r24
 36e:	30 e0       	ldi	r19, 0x00	; 0
 370:	81 e0       	ldi	r24, 0x01	; 1
 372:	90 e0       	ldi	r25, 0x00	; 0
 374:	02 2e       	mov	r0, r18
 376:	02 c0       	rjmp	.+4      	; 0x37c <DIO_SetPinDirection+0x6a>
 378:	88 0f       	add	r24, r24
 37a:	99 1f       	adc	r25, r25
 37c:	0a 94       	dec	r0
 37e:	e2 f7       	brpl	.-8      	; 0x378 <DIO_SetPinDirection+0x66>
 380:	84 2b       	or	r24, r20
 382:	8c 93       	st	X, r24
 384:	7b c0       	rjmp	.+246    	; 0x47c <DIO_SetPinDirection+0x16a>
		       break;
		  case XPORTC :
		       SET_BIT(DDRC_Register,u8PinIdCopy);
 386:	a7 e2       	ldi	r26, 0x27	; 39
 388:	b0 e0       	ldi	r27, 0x00	; 0
 38a:	e7 e2       	ldi	r30, 0x27	; 39
 38c:	f0 e0       	ldi	r31, 0x00	; 0
 38e:	80 81       	ld	r24, Z
 390:	48 2f       	mov	r20, r24
 392:	8a 81       	ldd	r24, Y+2	; 0x02
 394:	28 2f       	mov	r18, r24
 396:	30 e0       	ldi	r19, 0x00	; 0
 398:	81 e0       	ldi	r24, 0x01	; 1
 39a:	90 e0       	ldi	r25, 0x00	; 0
 39c:	02 2e       	mov	r0, r18
 39e:	02 c0       	rjmp	.+4      	; 0x3a4 <DIO_SetPinDirection+0x92>
 3a0:	88 0f       	add	r24, r24
 3a2:	99 1f       	adc	r25, r25
 3a4:	0a 94       	dec	r0
 3a6:	e2 f7       	brpl	.-8      	; 0x3a0 <DIO_SetPinDirection+0x8e>
 3a8:	84 2b       	or	r24, r20
 3aa:	8c 93       	st	X, r24
 3ac:	67 c0       	rjmp	.+206    	; 0x47c <DIO_SetPinDirection+0x16a>
		       break;
		  case XPORTD :
		       SET_BIT(DDRD_Register,u8PinIdCopy);
 3ae:	aa e2       	ldi	r26, 0x2A	; 42
 3b0:	b0 e0       	ldi	r27, 0x00	; 0
 3b2:	ea e2       	ldi	r30, 0x2A	; 42
 3b4:	f0 e0       	ldi	r31, 0x00	; 0
 3b6:	80 81       	ld	r24, Z
 3b8:	48 2f       	mov	r20, r24
 3ba:	8a 81       	ldd	r24, Y+2	; 0x02
 3bc:	28 2f       	mov	r18, r24
 3be:	30 e0       	ldi	r19, 0x00	; 0
 3c0:	81 e0       	ldi	r24, 0x01	; 1
 3c2:	90 e0       	ldi	r25, 0x00	; 0
 3c4:	02 2e       	mov	r0, r18
 3c6:	02 c0       	rjmp	.+4      	; 0x3cc <DIO_SetPinDirection+0xba>
 3c8:	88 0f       	add	r24, r24
 3ca:	99 1f       	adc	r25, r25
 3cc:	0a 94       	dec	r0
 3ce:	e2 f7       	brpl	.-8      	; 0x3c8 <DIO_SetPinDirection+0xb6>
 3d0:	84 2b       	or	r24, r20
 3d2:	8c 93       	st	X, r24
 3d4:	53 c0       	rjmp	.+166    	; 0x47c <DIO_SetPinDirection+0x16a>
		       break;
		}
	   }
	 else
	 {
			switch(u8PortIdCopy)
 3d6:	89 81       	ldd	r24, Y+1	; 0x01
 3d8:	28 2f       	mov	r18, r24
 3da:	30 e0       	ldi	r19, 0x00	; 0
 3dc:	3d 83       	std	Y+5, r19	; 0x05
 3de:	2c 83       	std	Y+4, r18	; 0x04
 3e0:	8c 81       	ldd	r24, Y+4	; 0x04
 3e2:	9d 81       	ldd	r25, Y+5	; 0x05
 3e4:	82 30       	cpi	r24, 0x02	; 2
 3e6:	91 05       	cpc	r25, r1
 3e8:	01 f1       	breq	.+64     	; 0x42a <DIO_SetPinDirection+0x118>
 3ea:	2c 81       	ldd	r18, Y+4	; 0x04
 3ec:	3d 81       	ldd	r19, Y+5	; 0x05
 3ee:	23 30       	cpi	r18, 0x03	; 3
 3f0:	31 05       	cpc	r19, r1
 3f2:	81 f1       	breq	.+96     	; 0x454 <DIO_SetPinDirection+0x142>
 3f4:	8c 81       	ldd	r24, Y+4	; 0x04
 3f6:	9d 81       	ldd	r25, Y+5	; 0x05
 3f8:	81 30       	cpi	r24, 0x01	; 1
 3fa:	91 05       	cpc	r25, r1
 3fc:	09 f0       	breq	.+2      	; 0x400 <DIO_SetPinDirection+0xee>
 3fe:	3e c0       	rjmp	.+124    	; 0x47c <DIO_SetPinDirection+0x16a>
			{

			  case XPORTB :
				  CLR_BIT(DDRB_Register,u8PinIdCopy);
 400:	a4 e2       	ldi	r26, 0x24	; 36
 402:	b0 e0       	ldi	r27, 0x00	; 0
 404:	e4 e2       	ldi	r30, 0x24	; 36
 406:	f0 e0       	ldi	r31, 0x00	; 0
 408:	80 81       	ld	r24, Z
 40a:	48 2f       	mov	r20, r24
 40c:	8a 81       	ldd	r24, Y+2	; 0x02
 40e:	28 2f       	mov	r18, r24
 410:	30 e0       	ldi	r19, 0x00	; 0
 412:	81 e0       	ldi	r24, 0x01	; 1
 414:	90 e0       	ldi	r25, 0x00	; 0
 416:	02 2e       	mov	r0, r18
 418:	02 c0       	rjmp	.+4      	; 0x41e <DIO_SetPinDirection+0x10c>
 41a:	88 0f       	add	r24, r24
 41c:	99 1f       	adc	r25, r25
 41e:	0a 94       	dec	r0
 420:	e2 f7       	brpl	.-8      	; 0x41a <DIO_SetPinDirection+0x108>
 422:	80 95       	com	r24
 424:	84 23       	and	r24, r20
 426:	8c 93       	st	X, r24
 428:	29 c0       	rjmp	.+82     	; 0x47c <DIO_SetPinDirection+0x16a>
			       break;
			  case XPORTC :
				  CLR_BIT(DDRC_Register,u8PinIdCopy);
 42a:	a7 e2       	ldi	r26, 0x27	; 39
 42c:	b0 e0       	ldi	r27, 0x00	; 0
 42e:	e7 e2       	ldi	r30, 0x27	; 39
 430:	f0 e0       	ldi	r31, 0x00	; 0
 432:	80 81       	ld	r24, Z
 434:	48 2f       	mov	r20, r24
 436:	8a 81       	ldd	r24, Y+2	; 0x02
 438:	28 2f       	mov	r18, r24
 43a:	30 e0       	ldi	r19, 0x00	; 0
 43c:	81 e0       	ldi	r24, 0x01	; 1
 43e:	90 e0       	ldi	r25, 0x00	; 0
 440:	02 2e       	mov	r0, r18
 442:	02 c0       	rjmp	.+4      	; 0x448 <DIO_SetPinDirection+0x136>
 444:	88 0f       	add	r24, r24
 446:	99 1f       	adc	r25, r25
 448:	0a 94       	dec	r0
 44a:	e2 f7       	brpl	.-8      	; 0x444 <DIO_SetPinDirection+0x132>
 44c:	80 95       	com	r24
 44e:	84 23       	and	r24, r20
 450:	8c 93       	st	X, r24
 452:	14 c0       	rjmp	.+40     	; 0x47c <DIO_SetPinDirection+0x16a>
			       break;
			  case XPORTD :
				  CLR_BIT(DDRD_Register,u8PinIdCopy);
 454:	aa e2       	ldi	r26, 0x2A	; 42
 456:	b0 e0       	ldi	r27, 0x00	; 0
 458:	ea e2       	ldi	r30, 0x2A	; 42
 45a:	f0 e0       	ldi	r31, 0x00	; 0
 45c:	80 81       	ld	r24, Z
 45e:	48 2f       	mov	r20, r24
 460:	8a 81       	ldd	r24, Y+2	; 0x02
 462:	28 2f       	mov	r18, r24
 464:	30 e0       	ldi	r19, 0x00	; 0
 466:	81 e0       	ldi	r24, 0x01	; 1
 468:	90 e0       	ldi	r25, 0x00	; 0
 46a:	02 2e       	mov	r0, r18
 46c:	02 c0       	rjmp	.+4      	; 0x472 <DIO_SetPinDirection+0x160>
 46e:	88 0f       	add	r24, r24
 470:	99 1f       	adc	r25, r25
 472:	0a 94       	dec	r0
 474:	e2 f7       	brpl	.-8      	; 0x46e <DIO_SetPinDirection+0x15c>
 476:	80 95       	com	r24
 478:	84 23       	and	r24, r20
 47a:	8c 93       	st	X, r24
			       break;
			}
	 }
}
 47c:	27 96       	adiw	r28, 0x07	; 7
 47e:	0f b6       	in	r0, 0x3f	; 63
 480:	f8 94       	cli
 482:	de bf       	out	0x3e, r29	; 62
 484:	0f be       	out	0x3f, r0	; 63
 486:	cd bf       	out	0x3d, r28	; 61
 488:	cf 91       	pop	r28
 48a:	df 91       	pop	r29
 48c:	08 95       	ret

0000048e <DIO_SetPortDirection>:


void DIO_SetPortDirection (u8 u8PortId, u8 u8PortDir)
{
 48e:	df 93       	push	r29
 490:	cf 93       	push	r28
 492:	00 d0       	rcall	.+0      	; 0x494 <DIO_SetPortDirection+0x6>
 494:	00 d0       	rcall	.+0      	; 0x496 <DIO_SetPortDirection+0x8>
 496:	cd b7       	in	r28, 0x3d	; 61
 498:	de b7       	in	r29, 0x3e	; 62
 49a:	89 83       	std	Y+1, r24	; 0x01
 49c:	6a 83       	std	Y+2, r22	; 0x02
	switch(u8PortId)
 49e:	89 81       	ldd	r24, Y+1	; 0x01
 4a0:	28 2f       	mov	r18, r24
 4a2:	30 e0       	ldi	r19, 0x00	; 0
 4a4:	3c 83       	std	Y+4, r19	; 0x04
 4a6:	2b 83       	std	Y+3, r18	; 0x03
 4a8:	8b 81       	ldd	r24, Y+3	; 0x03
 4aa:	9c 81       	ldd	r25, Y+4	; 0x04
 4ac:	82 30       	cpi	r24, 0x02	; 2
 4ae:	91 05       	cpc	r25, r1
 4b0:	79 f0       	breq	.+30     	; 0x4d0 <DIO_SetPortDirection+0x42>
 4b2:	2b 81       	ldd	r18, Y+3	; 0x03
 4b4:	3c 81       	ldd	r19, Y+4	; 0x04
 4b6:	23 30       	cpi	r18, 0x03	; 3
 4b8:	31 05       	cpc	r19, r1
 4ba:	79 f0       	breq	.+30     	; 0x4da <DIO_SetPortDirection+0x4c>
 4bc:	8b 81       	ldd	r24, Y+3	; 0x03
 4be:	9c 81       	ldd	r25, Y+4	; 0x04
 4c0:	81 30       	cpi	r24, 0x01	; 1
 4c2:	91 05       	cpc	r25, r1
 4c4:	71 f4       	brne	.+28     	; 0x4e2 <DIO_SetPortDirection+0x54>
	{

	  case XPORTB :
	       DDRB_Register=u8PortDir;
 4c6:	e4 e2       	ldi	r30, 0x24	; 36
 4c8:	f0 e0       	ldi	r31, 0x00	; 0
 4ca:	8a 81       	ldd	r24, Y+2	; 0x02
 4cc:	80 83       	st	Z, r24
 4ce:	09 c0       	rjmp	.+18     	; 0x4e2 <DIO_SetPortDirection+0x54>
	       break;
	  case XPORTC :
	       DDRC_Register=u8PortDir;
 4d0:	e7 e2       	ldi	r30, 0x27	; 39
 4d2:	f0 e0       	ldi	r31, 0x00	; 0
 4d4:	8a 81       	ldd	r24, Y+2	; 0x02
 4d6:	80 83       	st	Z, r24
 4d8:	04 c0       	rjmp	.+8      	; 0x4e2 <DIO_SetPortDirection+0x54>
	       break;
	  case XPORTD :
	       DDRD_Register=u8PortDir;
 4da:	ea e2       	ldi	r30, 0x2A	; 42
 4dc:	f0 e0       	ldi	r31, 0x00	; 0
 4de:	8a 81       	ldd	r24, Y+2	; 0x02
 4e0:	80 83       	st	Z, r24
	       break;
	}

}
 4e2:	0f 90       	pop	r0
 4e4:	0f 90       	pop	r0
 4e6:	0f 90       	pop	r0
 4e8:	0f 90       	pop	r0
 4ea:	cf 91       	pop	r28
 4ec:	df 91       	pop	r29
 4ee:	08 95       	ret

000004f0 <DIO_SetPortValue>:

void DIO_SetPortValue (u8 u8PortId, u8 u8PortVal){
 4f0:	df 93       	push	r29
 4f2:	cf 93       	push	r28
 4f4:	00 d0       	rcall	.+0      	; 0x4f6 <DIO_SetPortValue+0x6>
 4f6:	00 d0       	rcall	.+0      	; 0x4f8 <DIO_SetPortValue+0x8>
 4f8:	cd b7       	in	r28, 0x3d	; 61
 4fa:	de b7       	in	r29, 0x3e	; 62
 4fc:	89 83       	std	Y+1, r24	; 0x01
 4fe:	6a 83       	std	Y+2, r22	; 0x02
	switch(u8PortId)
 500:	89 81       	ldd	r24, Y+1	; 0x01
 502:	28 2f       	mov	r18, r24
 504:	30 e0       	ldi	r19, 0x00	; 0
 506:	3c 83       	std	Y+4, r19	; 0x04
 508:	2b 83       	std	Y+3, r18	; 0x03
 50a:	8b 81       	ldd	r24, Y+3	; 0x03
 50c:	9c 81       	ldd	r25, Y+4	; 0x04
 50e:	82 30       	cpi	r24, 0x02	; 2
 510:	91 05       	cpc	r25, r1
 512:	79 f0       	breq	.+30     	; 0x532 <DIO_SetPortValue+0x42>
 514:	2b 81       	ldd	r18, Y+3	; 0x03
 516:	3c 81       	ldd	r19, Y+4	; 0x04
 518:	23 30       	cpi	r18, 0x03	; 3
 51a:	31 05       	cpc	r19, r1
 51c:	79 f0       	breq	.+30     	; 0x53c <DIO_SetPortValue+0x4c>
 51e:	8b 81       	ldd	r24, Y+3	; 0x03
 520:	9c 81       	ldd	r25, Y+4	; 0x04
 522:	81 30       	cpi	r24, 0x01	; 1
 524:	91 05       	cpc	r25, r1
 526:	71 f4       	brne	.+28     	; 0x544 <DIO_SetPortValue+0x54>
	{

	  case XPORTB :
		  PORTB_Register=u8PortVal;
 528:	e5 e2       	ldi	r30, 0x25	; 37
 52a:	f0 e0       	ldi	r31, 0x00	; 0
 52c:	8a 81       	ldd	r24, Y+2	; 0x02
 52e:	80 83       	st	Z, r24
 530:	09 c0       	rjmp	.+18     	; 0x544 <DIO_SetPortValue+0x54>
	       break;
	  case XPORTC :
		  PORTC_Register=u8PortVal;
 532:	e8 e2       	ldi	r30, 0x28	; 40
 534:	f0 e0       	ldi	r31, 0x00	; 0
 536:	8a 81       	ldd	r24, Y+2	; 0x02
 538:	80 83       	st	Z, r24
 53a:	04 c0       	rjmp	.+8      	; 0x544 <DIO_SetPortValue+0x54>
	       break;
	  case XPORTD :
		  PORTD_Register=u8PortVal;
 53c:	eb e2       	ldi	r30, 0x2B	; 43
 53e:	f0 e0       	ldi	r31, 0x00	; 0
 540:	8a 81       	ldd	r24, Y+2	; 0x02
 542:	80 83       	st	Z, r24
	       break;
	}
}
 544:	0f 90       	pop	r0
 546:	0f 90       	pop	r0
 548:	0f 90       	pop	r0
 54a:	0f 90       	pop	r0
 54c:	cf 91       	pop	r28
 54e:	df 91       	pop	r29
 550:	08 95       	ret

00000552 <main>:

#include"DIO_int.h"
#include"DIO_reg.h"

void main()
{
 552:	df 93       	push	r29
 554:	cf 93       	push	r28
 556:	cd b7       	in	r28, 0x3d	; 61
 558:	de b7       	in	r29, 0x3e	; 62
DIO_SetPortDirection(XPORTB,OUTPUT);
 55a:	81 e0       	ldi	r24, 0x01	; 1
 55c:	61 e0       	ldi	r22, 0x01	; 1
 55e:	0e 94 47 02 	call	0x48e	; 0x48e <DIO_SetPortDirection>
DIO_SetPortDirection(XPORTD,OUTPUT);
 562:	83 e0       	ldi	r24, 0x03	; 3
 564:	61 e0       	ldi	r22, 0x01	; 1
 566:	0e 94 47 02 	call	0x48e	; 0x48e <DIO_SetPortDirection>
DIO_SetPinValue(XPORTD,PIN3,HIGH);
 56a:	83 e0       	ldi	r24, 0x03	; 3
 56c:	63 e0       	ldi	r22, 0x03	; 3
 56e:	41 e0       	ldi	r20, 0x01	; 1
 570:	0e 94 40 00 	call	0x80	; 0x80 <DIO_SetPinValue>
DIO_SetPinValue(XPORTD,PIN6,HIGH);
 574:	83 e0       	ldi	r24, 0x03	; 3
 576:	66 e0       	ldi	r22, 0x06	; 6
 578:	41 e0       	ldi	r20, 0x01	; 1
 57a:	0e 94 40 00 	call	0x80	; 0x80 <DIO_SetPinValue>
while(1)
{
	DIO_SetPinValue(XPORTD,PIN2,HIGH);
 57e:	83 e0       	ldi	r24, 0x03	; 3
 580:	62 e0       	ldi	r22, 0x02	; 2
 582:	41 e0       	ldi	r20, 0x01	; 1
 584:	0e 94 40 00 	call	0x80	; 0x80 <DIO_SetPinValue>
	DIO_SetPinValue(XPORTD,PIN4,LOW);
 588:	83 e0       	ldi	r24, 0x03	; 3
 58a:	64 e0       	ldi	r22, 0x04	; 4
 58c:	40 e0       	ldi	r20, 0x00	; 0
 58e:	0e 94 40 00 	call	0x80	; 0x80 <DIO_SetPinValue>

	DIO_SetPinValue(XPORTB,PIN0,HIGH);
 592:	81 e0       	ldi	r24, 0x01	; 1
 594:	60 e0       	ldi	r22, 0x00	; 0
 596:	41 e0       	ldi	r20, 0x01	; 1
 598:	0e 94 40 00 	call	0x80	; 0x80 <DIO_SetPinValue>
		DIO_SetPinValue(XPORTD,PIN7,LOW);
 59c:	83 e0       	ldi	r24, 0x03	; 3
 59e:	67 e0       	ldi	r22, 0x07	; 7
 5a0:	40 e0       	ldi	r20, 0x00	; 0
 5a2:	0e 94 40 00 	call	0x80	; 0x80 <DIO_SetPinValue>
 5a6:	eb cf       	rjmp	.-42     	; 0x57e <main+0x2c>

000005a8 <_exit>:
 5a8:	f8 94       	cli

000005aa <__stop_program>:
 5aa:	ff cf       	rjmp	.-2      	; 0x5aa <__stop_program>
